{
  "address": "0x5FbDB2315678afecb367f032d93F642f64180aa3",
  "abi": [
    {
      "inputs": [],
      "stateMutability": "nonpayable",
      "type": "constructor"
    },
    {
      "inputs": [
        {
          "internalType": "address",
          "name": "have",
          "type": "address"
        },
        {
          "internalType": "address",
          "name": "want",
          "type": "address"
        }
      ],
      "name": "OnlyCoordinatorCanFulfill",
      "type": "error"
    },
    {
      "anonymous": false,
      "inputs": [
        {
          "indexed": true,
          "internalType": "address",
          "name": "previousOwner",
          "type": "address"
        },
        {
          "indexed": true,
          "internalType": "address",
          "name": "newOwner",
          "type": "address"
        }
      ],
      "name": "OwnershipTransferred",
      "type": "event"
    },
    {
      "anonymous": false,
      "inputs": [
        {
          "indexed": true,
          "internalType": "uint256",
          "name": "nonce",
          "type": "uint256"
        },
        {
          "components": [
            {
              "internalType": "uint256",
              "name": "requestTime",
              "type": "uint256"
            },
            {
              "internalType": "uint256",
              "name": "requestBlock",
              "type": "uint256"
            },
            {
              "internalType": "uint256",
              "name": "fulfilledTime",
              "type": "uint256"
            },
            {
              "internalType": "uint256",
              "name": "fulfilledBlock",
              "type": "uint256"
            },
            {
              "internalType": "uint256",
              "name": "randomness",
              "type": "uint256"
            }
          ],
          "indexed": false,
          "internalType": "struct SimpleCLVRFContract.Request",
          "name": "",
          "type": "tuple"
        }
      ],
      "name": "RandomnessFulfilled",
      "type": "event"
    },
    {
      "inputs": [],
      "name": "nonce",
      "outputs": [
        {
          "internalType": "uint256",
          "name": "",
          "type": "uint256"
        }
      ],
      "stateMutability": "view",
      "type": "function"
    },
    {
      "inputs": [],
      "name": "owner",
      "outputs": [
        {
          "internalType": "address",
          "name": "",
          "type": "address"
        }
      ],
      "stateMutability": "view",
      "type": "function"
    },
    {
      "inputs": [
        {
          "internalType": "uint256",
          "name": "requestId",
          "type": "uint256"
        },
        {
          "internalType": "uint256[]",
          "name": "randomWords",
          "type": "uint256[]"
        }
      ],
      "name": "rawFulfillRandomWords",
      "outputs": [],
      "stateMutability": "nonpayable",
      "type": "function"
    },
    {
      "inputs": [],
      "name": "renounceOwnership",
      "outputs": [],
      "stateMutability": "nonpayable",
      "type": "function"
    },
    {
      "inputs": [],
      "name": "requestId",
      "outputs": [
        {
          "internalType": "uint256",
          "name": "",
          "type": "uint256"
        }
      ],
      "stateMutability": "view",
      "type": "function"
    },
    {
      "inputs": [
        {
          "internalType": "uint256",
          "name": "_count",
          "type": "uint256"
        }
      ],
      "name": "requestRandomness",
      "outputs": [],
      "stateMutability": "nonpayable",
      "type": "function"
    },
    {
      "inputs": [
        {
          "internalType": "uint256",
          "name": "",
          "type": "uint256"
        }
      ],
      "name": "requests",
      "outputs": [
        {
          "internalType": "uint256",
          "name": "requestTime",
          "type": "uint256"
        },
        {
          "internalType": "uint256",
          "name": "requestBlock",
          "type": "uint256"
        },
        {
          "internalType": "uint256",
          "name": "fulfilledTime",
          "type": "uint256"
        },
        {
          "internalType": "uint256",
          "name": "fulfilledBlock",
          "type": "uint256"
        },
        {
          "internalType": "uint256",
          "name": "randomness",
          "type": "uint256"
        }
      ],
      "stateMutability": "view",
      "type": "function"
    },
    {
      "inputs": [
        {
          "internalType": "address",
          "name": "_vrfCoordinator",
          "type": "address"
        }
      ],
      "name": "setCoordinator",
      "outputs": [],
      "stateMutability": "nonpayable",
      "type": "function"
    },
    {
      "inputs": [
        {
          "internalType": "address",
          "name": "newOwner",
          "type": "address"
        }
      ],
      "name": "transferOwnership",
      "outputs": [],
      "stateMutability": "nonpayable",
      "type": "function"
    },
    {
      "inputs": [],
      "name": "vrfCoordinator",
      "outputs": [
        {
          "internalType": "address",
          "name": "",
          "type": "address"
        }
      ],
      "stateMutability": "view",
      "type": "function"
    }
  ],
  "transactionHash": "0xb76a30fd502e622316263ab5ef02cbdb61b328c055c78354b3c1d373df6693c0",
  "args": [],
  "numDeployments": 1,
  "solcInputHash": "6d87c5f22a1c22b6608cc466a3640bc1",
  "bytecode": "0x60806040526103ea600260146101000a81548167ffffffffffffffff021916908367ffffffffffffffff16021790555073ae975071be8f8ee67addbc1a82488f1c24858067600360006101000a81548173ffffffffffffffffffffffffffffffffffffffff021916908373ffffffffffffffffffffffffffffffffffffffff1602179055507fcc294a196eeeb44da2888d17c0625cc88d70d9760a69d58d853ba6581a9ab0cd60001b600455620493e0600560006101000a81548163ffffffff021916908363ffffffff1602179055506003600560046101000a81548161ffff021916908361ffff1602179055506001600560066101000a81548163ffffffff021916908363ffffffff16021790555034801561011b57600080fd5b5060008054906101000a900473ffffffffffffffffffffffffffffffffffffffff16806000806101000a81548173ffffffffffffffffffffffffffffffffffffffff021916908373ffffffffffffffffffffffffffffffffffffffff1602179055505061019a61018f61020060201b60201c565b61020860201b60201c565b60008054906101000a900473ffffffffffffffffffffffffffffffffffffffff16600260006101000a81548173ffffffffffffffffffffffffffffffffffffffff021916908373ffffffffffffffffffffffffffffffffffffffff1602179055506102ce565b600033905090565b6000600160009054906101000a900473ffffffffffffffffffffffffffffffffffffffff16905081600160006101000a81548173ffffffffffffffffffffffffffffffffffffffff021916908373ffffffffffffffffffffffffffffffffffffffff1602179055508173ffffffffffffffffffffffffffffffffffffffff168173ffffffffffffffffffffffffffffffffffffffff167f8be0079c531659141344cd1fd0a4f28419497f9722a3daafe3b4186f6b6457e060405160405180910390a35050565b610f9b806102dd6000396000f3fe608060405234801561001057600080fd5b506004361061009d5760003560e01c80638da5cb5b116100665780638da5cb5b146101365780638ea9811714610154578063a3e56fa814610170578063affed0e01461018e578063f2fde38b146101ac5761009d565b80626d6cae146100a25780631fe543e3146100c0578063715018a6146100dc5780637363ae1f146100e657806381d12c5814610102575b600080fd5b6100aa6101c8565b6040516100b7919061080f565b60405180910390f35b6100da60048036038101906100d591906109c3565b6101ce565b005b6100e461028e565b005b61010060048036038101906100fb9190610a1f565b6102a2565b005b61011c60048036038101906101179190610a1f565b6102cc565b60405161012d959493929190610a4c565b60405180910390f35b61013e610302565b60405161014b9190610ae0565b60405180910390f35b61016e60048036038101906101699190610b27565b61032c565b005b6101786103a1565b6040516101859190610ae0565b60405180910390f35b6101966103c5565b6040516101a3919061080f565b60405180910390f35b6101c660048036038101906101c19190610b27565b6103cb565b005b60065481565b60008054906101000a900473ffffffffffffffffffffffffffffffffffffffff1673ffffffffffffffffffffffffffffffffffffffff163373ffffffffffffffffffffffffffffffffffffffff1614610280573360008054906101000a900473ffffffffffffffffffffffffffffffffffffffff166040517f1cf993f4000000000000000000000000000000000000000000000000000000008152600401610277929190610b54565b60405180910390fd5b61028a828261044e565b5050565b610296610553565b6102a060006105d1565b565b60005b818110156102c8576102b5610697565b80806102c090610bac565b9150506102a5565b5050565b60086020528060005260406000206000915090508060000154908060010154908060020154908060030154908060040154905085565b6000600160009054906101000a900473ffffffffffffffffffffffffffffffffffffffff16905090565b610334610553565b61033d816107ab565b60008054906101000a900473ffffffffffffffffffffffffffffffffffffffff16600260006101000a81548173ffffffffffffffffffffffffffffffffffffffff021916908373ffffffffffffffffffffffffffffffffffffffff16021790555050565b60008054906101000a900473ffffffffffffffffffffffffffffffffffffffff1681565b60075481565b6103d3610553565b600073ffffffffffffffffffffffffffffffffffffffff168173ffffffffffffffffffffffffffffffffffffffff1603610442576040517f08c379a000000000000000000000000000000000000000000000000000000000815260040161043990610c77565b60405180910390fd5b61044b816105d1565b50565b6000600160148360008151811061046857610467610c97565b5b602002602001015161047a9190610cf5565b6104849190610d26565b905060006040518060a00160405280428152602001438152602001428152602001438152602001846000815181106104bf576104be610c97565b5b6020026020010151815250905080600860004381526020019081526020016000206000820151816000015560208201518160010155604082015181600201556060820151816003015560808201518160040155905050437f2e15cbd9321328285463961320a9cdba3de05a17e577e72e4c34cbeca629b189826040516105459190610dd1565b60405180910390a250505050565b61055b6107ee565b73ffffffffffffffffffffffffffffffffffffffff16610579610302565b73ffffffffffffffffffffffffffffffffffffffff16146105cf576040517f08c379a00000000000000000000000000000000000000000000000000000000081526004016105c690610e38565b60405180910390fd5b565b6000600160009054906101000a900473ffffffffffffffffffffffffffffffffffffffff16905081600160006101000a81548173ffffffffffffffffffffffffffffffffffffffff021916908373ffffffffffffffffffffffffffffffffffffffff1602179055508173ffffffffffffffffffffffffffffffffffffffff168173ffffffffffffffffffffffffffffffffffffffff167f8be0079c531659141344cd1fd0a4f28419497f9722a3daafe3b4186f6b6457e060405160405180910390a35050565b600260009054906101000a900473ffffffffffffffffffffffffffffffffffffffff1673ffffffffffffffffffffffffffffffffffffffff16635d3b1d30600454600260149054906101000a900467ffffffffffffffff16600560049054906101000a900461ffff16600560009054906101000a900463ffffffff16600560069054906101000a900463ffffffff166040518663ffffffff1660e01b8152600401610746959493929190610ed0565b6020604051808303816000875af1158015610765573d6000803e3d6000fd5b505050506040513d601f19601f820116820180604052508101906107899190610f38565b6006819055506001600760008282546107a29190610d26565b92505081905550565b806000806101000a81548173ffffffffffffffffffffffffffffffffffffffff021916908373ffffffffffffffffffffffffffffffffffffffff16021790555050565b600033905090565b6000819050919050565b610809816107f6565b82525050565b60006020820190506108246000830184610800565b92915050565b6000604051905090565b600080fd5b600080fd5b610847816107f6565b811461085257600080fd5b50565b6000813590506108648161083e565b92915050565b600080fd5b6000601f19601f8301169050919050565b7f4e487b7100000000000000000000000000000000000000000000000000000000600052604160045260246000fd5b6108b88261086f565b810181811067ffffffffffffffff821117156108d7576108d6610880565b5b80604052505050565b60006108ea61082a565b90506108f682826108af565b919050565b600067ffffffffffffffff82111561091657610915610880565b5b602082029050602081019050919050565b600080fd5b600061093f61093a846108fb565b6108e0565b9050808382526020820190506020840283018581111561096257610961610927565b5b835b8181101561098b57806109778882610855565b845260208401935050602081019050610964565b5050509392505050565b600082601f8301126109aa576109a961086a565b5b81356109ba84826020860161092c565b91505092915050565b600080604083850312156109da576109d9610834565b5b60006109e885828601610855565b925050602083013567ffffffffffffffff811115610a0957610a08610839565b5b610a1585828601610995565b9150509250929050565b600060208284031215610a3557610a34610834565b5b6000610a4384828501610855565b91505092915050565b600060a082019050610a616000830188610800565b610a6e6020830187610800565b610a7b6040830186610800565b610a886060830185610800565b610a956080830184610800565b9695505050505050565b600073ffffffffffffffffffffffffffffffffffffffff82169050919050565b6000610aca82610a9f565b9050919050565b610ada81610abf565b82525050565b6000602082019050610af56000830184610ad1565b92915050565b610b0481610abf565b8114610b0f57600080fd5b50565b600081359050610b2181610afb565b92915050565b600060208284031215610b3d57610b3c610834565b5b6000610b4b84828501610b12565b91505092915050565b6000604082019050610b696000830185610ad1565b610b766020830184610ad1565b9392505050565b7f4e487b7100000000000000000000000000000000000000000000000000000000600052601160045260246000fd5b6000610bb7826107f6565b91507fffffffffffffffffffffffffffffffffffffffffffffffffffffffffffffffff8203610be957610be8610b7d565b5b600182019050919050565b600082825260208201905092915050565b7f4f776e61626c653a206e6577206f776e657220697320746865207a65726f206160008201527f6464726573730000000000000000000000000000000000000000000000000000602082015250565b6000610c61602683610bf4565b9150610c6c82610c05565b604082019050919050565b60006020820190508181036000830152610c9081610c54565b9050919050565b7f4e487b7100000000000000000000000000000000000000000000000000000000600052603260045260246000fd5b7f4e487b7100000000000000000000000000000000000000000000000000000000600052601260045260246000fd5b6000610d00826107f6565b9150610d0b836107f6565b925082610d1b57610d1a610cc6565b5b828206905092915050565b6000610d31826107f6565b9150610d3c836107f6565b9250828201905080821115610d5457610d53610b7d565b5b92915050565b610d63816107f6565b82525050565b60a082016000820151610d7f6000850182610d5a565b506020820151610d926020850182610d5a565b506040820151610da56040850182610d5a565b506060820151610db86060850182610d5a565b506080820151610dcb6080850182610d5a565b50505050565b600060a082019050610de66000830184610d69565b92915050565b7f4f776e61626c653a2063616c6c6572206973206e6f7420746865206f776e6572600082015250565b6000610e22602083610bf4565b9150610e2d82610dec565b602082019050919050565b60006020820190508181036000830152610e5181610e15565b9050919050565b6000819050919050565b610e6b81610e58565b82525050565b600067ffffffffffffffff82169050919050565b610e8e81610e71565b82525050565b600061ffff82169050919050565b610eab81610e94565b82525050565b600063ffffffff82169050919050565b610eca81610eb1565b82525050565b600060a082019050610ee56000830188610e62565b610ef26020830187610e85565b610eff6040830186610ea2565b610f0c6060830185610ec1565b610f196080830184610ec1565b9695505050505050565b600081519050610f328161083e565b92915050565b600060208284031215610f4e57610f4d610834565b5b6000610f5c84828501610f23565b9150509291505056fea2646970667358221220ccaddc878de91844172b3f3955a63d69228526aa586cf4382347ff2afcbaa24764736f6c63430008130033",
  "devdoc": {
    "kind": "dev",
    "methods": {
      "owner()": {
        "details": "Returns the address of the current owner."
      },
      "renounceOwnership()": {
        "details": "Leaves the contract without owner. It will not be possible to call `onlyOwner` functions. Can only be called by the current owner. NOTE: Renouncing ownership will leave the contract without an owner, thereby disabling any functionality that is only available to the owner."
      },
      "transferOwnership(address)": {
        "details": "Transfers ownership of the contract to a new account (`newOwner`). Can only be called by the current owner."
      }
    },
    "version": 1
  },
  "userdoc": {
    "kind": "user",
    "methods": {},
    "version": 1
  },
  "storageLayout": {
    "storage": [
      {
        "astId": 324,
        "contract": "contracts/gelato-vrf-cl-compatible/SimpleCLVRFContract.sol:SimpleCLVRFContract",
        "label": "vrfCoordinator",
        "offset": 0,
        "slot": "0",
        "type": "t_address"
      },
      {
        "astId": 7,
        "contract": "contracts/gelato-vrf-cl-compatible/SimpleCLVRFContract.sol:SimpleCLVRFContract",
        "label": "_owner",
        "offset": 0,
        "slot": "1",
        "type": "t_address"
      },
      {
        "astId": 146,
        "contract": "contracts/gelato-vrf-cl-compatible/SimpleCLVRFContract.sol:SimpleCLVRFContract",
        "label": "COORDINATOR",
        "offset": 0,
        "slot": "2",
        "type": "t_contract(VRFCoordinatorV2Interface)485"
      },
      {
        "astId": 149,
        "contract": "contracts/gelato-vrf-cl-compatible/SimpleCLVRFContract.sol:SimpleCLVRFContract",
        "label": "s_subscriptionId",
        "offset": 20,
        "slot": "2",
        "type": "t_uint64"
      },
      {
        "astId": 152,
        "contract": "contracts/gelato-vrf-cl-compatible/SimpleCLVRFContract.sol:SimpleCLVRFContract",
        "label": "localVrfCoordinator",
        "offset": 0,
        "slot": "3",
        "type": "t_address"
      },
      {
        "astId": 155,
        "contract": "contracts/gelato-vrf-cl-compatible/SimpleCLVRFContract.sol:SimpleCLVRFContract",
        "label": "s_keyHash",
        "offset": 0,
        "slot": "4",
        "type": "t_bytes32"
      },
      {
        "astId": 158,
        "contract": "contracts/gelato-vrf-cl-compatible/SimpleCLVRFContract.sol:SimpleCLVRFContract",
        "label": "callbackGasLimit",
        "offset": 0,
        "slot": "5",
        "type": "t_uint32"
      },
      {
        "astId": 161,
        "contract": "contracts/gelato-vrf-cl-compatible/SimpleCLVRFContract.sol:SimpleCLVRFContract",
        "label": "requestConfirmations",
        "offset": 4,
        "slot": "5",
        "type": "t_uint16"
      },
      {
        "astId": 164,
        "contract": "contracts/gelato-vrf-cl-compatible/SimpleCLVRFContract.sol:SimpleCLVRFContract",
        "label": "numWords",
        "offset": 6,
        "slot": "5",
        "type": "t_uint32"
      },
      {
        "astId": 166,
        "contract": "contracts/gelato-vrf-cl-compatible/SimpleCLVRFContract.sol:SimpleCLVRFContract",
        "label": "requestId",
        "offset": 0,
        "slot": "6",
        "type": "t_uint256"
      },
      {
        "astId": 186,
        "contract": "contracts/gelato-vrf-cl-compatible/SimpleCLVRFContract.sol:SimpleCLVRFContract",
        "label": "nonce",
        "offset": 0,
        "slot": "7",
        "type": "t_uint256"
      },
      {
        "astId": 191,
        "contract": "contracts/gelato-vrf-cl-compatible/SimpleCLVRFContract.sol:SimpleCLVRFContract",
        "label": "requests",
        "offset": 0,
        "slot": "8",
        "type": "t_mapping(t_uint256,t_struct(Request)177_storage)"
      }
    ],
    "types": {
      "t_address": {
        "encoding": "inplace",
        "label": "address",
        "numberOfBytes": "20"
      },
      "t_bytes32": {
        "encoding": "inplace",
        "label": "bytes32",
        "numberOfBytes": "32"
      },
      "t_contract(VRFCoordinatorV2Interface)485": {
        "encoding": "inplace",
        "label": "contract VRFCoordinatorV2Interface",
        "numberOfBytes": "20"
      },
      "t_mapping(t_uint256,t_struct(Request)177_storage)": {
        "encoding": "mapping",
        "key": "t_uint256",
        "label": "mapping(uint256 => struct SimpleCLVRFContract.Request)",
        "numberOfBytes": "32",
        "value": "t_struct(Request)177_storage"
      },
      "t_struct(Request)177_storage": {
        "encoding": "inplace",
        "label": "struct SimpleCLVRFContract.Request",
        "members": [
          {
            "astId": 168,
            "contract": "contracts/gelato-vrf-cl-compatible/SimpleCLVRFContract.sol:SimpleCLVRFContract",
            "label": "requestTime",
            "offset": 0,
            "slot": "0",
            "type": "t_uint256"
          },
          {
            "astId": 170,
            "contract": "contracts/gelato-vrf-cl-compatible/SimpleCLVRFContract.sol:SimpleCLVRFContract",
            "label": "requestBlock",
            "offset": 0,
            "slot": "1",
            "type": "t_uint256"
          },
          {
            "astId": 172,
            "contract": "contracts/gelato-vrf-cl-compatible/SimpleCLVRFContract.sol:SimpleCLVRFContract",
            "label": "fulfilledTime",
            "offset": 0,
            "slot": "2",
            "type": "t_uint256"
          },
          {
            "astId": 174,
            "contract": "contracts/gelato-vrf-cl-compatible/SimpleCLVRFContract.sol:SimpleCLVRFContract",
            "label": "fulfilledBlock",
            "offset": 0,
            "slot": "3",
            "type": "t_uint256"
          },
          {
            "astId": 176,
            "contract": "contracts/gelato-vrf-cl-compatible/SimpleCLVRFContract.sol:SimpleCLVRFContract",
            "label": "randomness",
            "offset": 0,
            "slot": "4",
            "type": "t_uint256"
          }
        ],
        "numberOfBytes": "160"
      },
      "t_uint16": {
        "encoding": "inplace",
        "label": "uint16",
        "numberOfBytes": "2"
      },
      "t_uint256": {
        "encoding": "inplace",
        "label": "uint256",
        "numberOfBytes": "32"
      },
      "t_uint32": {
        "encoding": "inplace",
        "label": "uint32",
        "numberOfBytes": "4"
      },
      "t_uint64": {
        "encoding": "inplace",
        "label": "uint64",
        "numberOfBytes": "8"
      }
    }
  }
}